{
  "contractName": "Storage",
  "abi": [
    {
      "inputs": [],
      "stateMutability": "nonpayable",
      "type": "constructor"
    },
    {
      "inputs": [],
      "name": "a",
      "outputs": [
        {
          "internalType": "uint8",
          "name": "",
          "type": "uint8"
        }
      ],
      "stateMutability": "view",
      "type": "function"
    },
    {
      "inputs": [
        {
          "internalType": "uint256",
          "name": "",
          "type": "uint256"
        }
      ],
      "name": "aa",
      "outputs": [
        {
          "internalType": "uint256",
          "name": "",
          "type": "uint256"
        }
      ],
      "stateMutability": "view",
      "type": "function"
    },
    {
      "inputs": [],
      "name": "b",
      "outputs": [
        {
          "internalType": "uint16",
          "name": "",
          "type": "uint16"
        }
      ],
      "stateMutability": "view",
      "type": "function"
    },
    {
      "inputs": [
        {
          "internalType": "address",
          "name": "",
          "type": "address"
        }
      ],
      "name": "bb",
      "outputs": [
        {
          "internalType": "uint256",
          "name": "",
          "type": "uint256"
        }
      ],
      "stateMutability": "view",
      "type": "function"
    },
    {
      "inputs": [],
      "name": "c",
      "outputs": [
        {
          "internalType": "address",
          "name": "",
          "type": "address"
        }
      ],
      "stateMutability": "view",
      "type": "function"
    },
    {
      "inputs": [
        {
          "internalType": "uint256",
          "name": "",
          "type": "uint256"
        }
      ],
      "name": "cc",
      "outputs": [
        {
          "internalType": "uint256",
          "name": "",
          "type": "uint256"
        }
      ],
      "stateMutability": "view",
      "type": "function"
    },
    {
      "inputs": [],
      "name": "e",
      "outputs": [
        {
          "internalType": "uint64",
          "name": "",
          "type": "uint64"
        }
      ],
      "stateMutability": "view",
      "type": "function"
    },
    {
      "inputs": [],
      "name": "f",
      "outputs": [
        {
          "internalType": "uint256",
          "name": "",
          "type": "uint256"
        }
      ],
      "stateMutability": "view",
      "type": "function"
    },
    {
      "inputs": [],
      "name": "g",
      "outputs": [
        {
          "internalType": "uint8",
          "name": "",
          "type": "uint8"
        }
      ],
      "stateMutability": "view",
      "type": "function"
    },
    {
      "inputs": [],
      "name": "h",
      "outputs": [
        {
          "internalType": "uint256",
          "name": "",
          "type": "uint256"
        }
      ],
      "stateMutability": "view",
      "type": "function"
    }
  ],
  "bytecode": "0x60806040526007600360006101000a81548160ff021916908360ff160217905550600a600360016101000a81548161ffff021916908361ffff16021790555073648faad551af1da6d6556f0e3c41b37b6055bad16003806101000a81548173ffffffffffffffffffffffffffffffffffffffff021916908373ffffffffffffffffffffffffffffffffffffffff1602179055506001600360176101000a81548160ff021916908315150217905550600f600360186101000a81548167ffffffffffffffff021916908367ffffffffffffffff16021790555060c86004556028600560006101000a81548160ff021916908360ff16021790555061031560065534801561010a57600080fd5b506002600190806001815401808255809150506001900390600052602060002001600090919091909150556002600a908060018154018082558091505060019003906000526020600020016000909190919091505560026064908060018154018082558091505060019003906000526020600020016000909190919091505560046000806002815260200190815260200160002081905550600a600080600381526020019081526020016000208190555060646001600073f8929048d74164582e5fa0897fc654cbf0c096c673ffffffffffffffffffffffffffffffffffffffff1673ffffffffffffffffffffffffffffffffffffffff168152602001908152602001600020819055506104fa806102236000396000f3fe608060405234801561001057600080fd5b506004361061009e5760003560e01c8063c3da42b811610066578063c3da42b81461014b578063e1d9bbbd14610169578063e2179b8e14610199578063eb366c13146101b7578063ffae15ba146101e75761009e565b80630dbe671f146100a357806326121ff0146100c15780634df7e3d0146100df5780637323febe146100fd578063b8c9d3651461012d575b600080fd5b6100ab610205565b6040516100b89190610410565b60405180910390f35b6100c9610218565b6040516100d691906103da565b60405180910390f35b6100e761021e565b6040516100f491906103bf565b60405180910390f35b61011760048036038101906101129190610330565b610232565b60405161012491906103da565b60405180910390f35b61013561024a565b60405161014291906103da565b60405180910390f35b610153610250565b60405161016091906103a4565b60405180910390f35b610183600480360381019061017e9190610307565b610274565b60405161019091906103da565b60405180910390f35b6101a161028c565b6040516101ae9190610410565b60405180910390f35b6101d160048036038101906101cc9190610330565b61029f565b6040516101de91906103da565b60405180910390f35b6101ef6102c3565b6040516101fc91906103f5565b60405180910390f35b600360009054906101000a900460ff1681565b60045481565b600360019054906101000a900461ffff1681565b60006020528060005260406000206000915090505481565b60065481565b60038054906101000a900473ffffffffffffffffffffffffffffffffffffffff1681565b60016020528060005260406000206000915090505481565b600560009054906101000a900460ff1681565b600281815481106102af57600080fd5b906000526020600020016000915090505481565b600360189054906101000a900467ffffffffffffffff1681565b6000813590506102ec81610496565b92915050565b600081359050610301816104ad565b92915050565b60006020828403121561031957600080fd5b6000610327848285016102dd565b91505092915050565b60006020828403121561034257600080fd5b6000610350848285016102f2565b91505092915050565b6103628161042b565b82525050565b6103718161043d565b82525050565b6103808161046b565b82525050565b61038f81610475565b82525050565b61039e81610489565b82525050565b60006020820190506103b96000830184610359565b92915050565b60006020820190506103d46000830184610368565b92915050565b60006020820190506103ef6000830184610377565b92915050565b600060208201905061040a6000830184610386565b92915050565b60006020820190506104256000830184610395565b92915050565b60006104368261044b565b9050919050565b600061ffff82169050919050565b600073ffffffffffffffffffffffffffffffffffffffff82169050919050565b6000819050919050565b600067ffffffffffffffff82169050919050565b600060ff82169050919050565b61049f8161042b565b81146104aa57600080fd5b50565b6104b68161046b565b81146104c157600080fd5b5056fea2646970667358221220fd044c9f46345d6c57911b7b83e3f0860aace10347c41e81fb0ab07a8c7b1dbe64736f6c63430008040033",
  "immutableReferences": {},
  "source": "// SPDX-License-Identifier: MIT\npragma solidity >=0.4.22 <0.9.0;\n\ncontract Storage {\n\n  // keccak256(key . slot)\n  mapping(uint => uint) public aa; // slot 0\n  mapping(address => uint) public bb; // slot 1\n\n  // keccak256(slot) + index of the item\n  uint[] public cc; // slot 2\n\n  uint8 public a = 7; // 1 byte\n  uint16 public b = 10; // 2bytes\n  address public c = 0x648FaaD551af1DA6d6556f0E3C41B37B6055bAD1; // 20bytes\n  bool d = true; // 1 byte\n  uint64 public e = 15; // 8bytes\n  // 32 bytes, all values will be stored in slot 3\n\n  // 0x 0f 01 648faad551af1da6d6556f0e3c41b37b6055bad1 000a 07\n\n  uint256 public f = 200; // 32bytes -> slot 4\n\n  uint8 public g = 40; // 1byte -> slot 5\n\n  uint256 public h = 789; // 32bytes -> slot 6\n\n  constructor() {\n    cc.push(1); // 0\n    cc.push(10); // 1\n    cc.push(100); // 2\n\n    aa[2] = 4;\n    aa[3] = 10;\n    bb[0xf8929048D74164582E5FA0897fC654CbF0c096C6] = 100;\n  }\n}\n",
  "sourcePath": "/Users/filipjerga/blockchain/faucet/contracts/Storage.sol",
  "compiler": {
    "name": "solc",
    "version": "0.8.4+commit.c7e474f2.Emscripten.clang"
  },
  "schemaVersion": "3.4.3",
  "updatedAt": "2021-08-25T08:25:28.780Z",
  "devdoc": {
    "kind": "dev",
    "methods": {},
    "version": 1
  },
  "userdoc": {
    "kind": "user",
    "methods": {},
    "version": 1
  }
}